{
  "contractName": "NFTCollection",
  "abi": [
    {
      "inputs": [
        {
          "internalType": "string",
          "name": "baseURI",
          "type": "string"
        },
        {
          "internalType": "string",
          "name": "name",
          "type": "string"
        },
        {
          "internalType": "string",
          "name": "symbol",
          "type": "string"
        }
      ],
      "stateMutability": "nonpayable",
      "type": "constructor"
    },
    {
      "anonymous": false,
      "inputs": [
        {
          "indexed": true,
          "internalType": "address",
          "name": "owner",
          "type": "address"
        },
        {
          "indexed": true,
          "internalType": "address",
          "name": "approved",
          "type": "address"
        },
        {
          "indexed": true,
          "internalType": "uint256",
          "name": "tokenId",
          "type": "uint256"
        }
      ],
      "name": "Approval",
      "type": "event"
    },
    {
      "anonymous": false,
      "inputs": [
        {
          "indexed": true,
          "internalType": "address",
          "name": "owner",
          "type": "address"
        },
        {
          "indexed": true,
          "internalType": "address",
          "name": "operator",
          "type": "address"
        },
        {
          "indexed": false,
          "internalType": "bool",
          "name": "approved",
          "type": "bool"
        }
      ],
      "name": "ApprovalForAll",
      "type": "event"
    },
    {
      "anonymous": false,
      "inputs": [
        {
          "indexed": true,
          "internalType": "address",
          "name": "previousOwner",
          "type": "address"
        },
        {
          "indexed": true,
          "internalType": "address",
          "name": "newOwner",
          "type": "address"
        }
      ],
      "name": "OwnershipTransferred",
      "type": "event"
    },
    {
      "anonymous": false,
      "inputs": [
        {
          "indexed": true,
          "internalType": "address",
          "name": "from",
          "type": "address"
        },
        {
          "indexed": true,
          "internalType": "address",
          "name": "to",
          "type": "address"
        },
        {
          "indexed": true,
          "internalType": "uint256",
          "name": "tokenId",
          "type": "uint256"
        }
      ],
      "name": "Transfer",
      "type": "event"
    },
    {
      "inputs": [],
      "name": "MAX_PER_MINT",
      "outputs": [
        {
          "internalType": "uint256",
          "name": "",
          "type": "uint256"
        }
      ],
      "stateMutability": "view",
      "type": "function",
      "constant": true
    },
    {
      "inputs": [],
      "name": "MAX_SUPPLY",
      "outputs": [
        {
          "internalType": "uint256",
          "name": "",
          "type": "uint256"
        }
      ],
      "stateMutability": "view",
      "type": "function",
      "constant": true
    },
    {
      "inputs": [],
      "name": "PRICE",
      "outputs": [
        {
          "internalType": "uint256",
          "name": "",
          "type": "uint256"
        }
      ],
      "stateMutability": "view",
      "type": "function",
      "constant": true
    },
    {
      "inputs": [
        {
          "internalType": "address",
          "name": "to",
          "type": "address"
        },
        {
          "internalType": "uint256",
          "name": "tokenId",
          "type": "uint256"
        }
      ],
      "name": "approve",
      "outputs": [],
      "stateMutability": "nonpayable",
      "type": "function"
    },
    {
      "inputs": [
        {
          "internalType": "address",
          "name": "owner",
          "type": "address"
        }
      ],
      "name": "balanceOf",
      "outputs": [
        {
          "internalType": "uint256",
          "name": "",
          "type": "uint256"
        }
      ],
      "stateMutability": "view",
      "type": "function",
      "constant": true
    },
    {
      "inputs": [],
      "name": "baseTokenURI",
      "outputs": [
        {
          "internalType": "string",
          "name": "",
          "type": "string"
        }
      ],
      "stateMutability": "view",
      "type": "function",
      "constant": true
    },
    {
      "inputs": [
        {
          "internalType": "uint256",
          "name": "tokenId",
          "type": "uint256"
        }
      ],
      "name": "getApproved",
      "outputs": [
        {
          "internalType": "address",
          "name": "",
          "type": "address"
        }
      ],
      "stateMutability": "view",
      "type": "function",
      "constant": true
    },
    {
      "inputs": [
        {
          "internalType": "address",
          "name": "owner",
          "type": "address"
        },
        {
          "internalType": "address",
          "name": "operator",
          "type": "address"
        }
      ],
      "name": "isApprovedForAll",
      "outputs": [
        {
          "internalType": "bool",
          "name": "",
          "type": "bool"
        }
      ],
      "stateMutability": "view",
      "type": "function",
      "constant": true
    },
    {
      "inputs": [],
      "name": "name",
      "outputs": [
        {
          "internalType": "string",
          "name": "",
          "type": "string"
        }
      ],
      "stateMutability": "view",
      "type": "function",
      "constant": true
    },
    {
      "inputs": [],
      "name": "owner",
      "outputs": [
        {
          "internalType": "address",
          "name": "",
          "type": "address"
        }
      ],
      "stateMutability": "view",
      "type": "function",
      "constant": true
    },
    {
      "inputs": [
        {
          "internalType": "uint256",
          "name": "tokenId",
          "type": "uint256"
        }
      ],
      "name": "ownerOf",
      "outputs": [
        {
          "internalType": "address",
          "name": "",
          "type": "address"
        }
      ],
      "stateMutability": "view",
      "type": "function",
      "constant": true
    },
    {
      "inputs": [],
      "name": "renounceOwnership",
      "outputs": [],
      "stateMutability": "nonpayable",
      "type": "function"
    },
    {
      "inputs": [
        {
          "internalType": "address",
          "name": "from",
          "type": "address"
        },
        {
          "internalType": "address",
          "name": "to",
          "type": "address"
        },
        {
          "internalType": "uint256",
          "name": "tokenId",
          "type": "uint256"
        }
      ],
      "name": "safeTransferFrom",
      "outputs": [],
      "stateMutability": "nonpayable",
      "type": "function"
    },
    {
      "inputs": [
        {
          "internalType": "address",
          "name": "from",
          "type": "address"
        },
        {
          "internalType": "address",
          "name": "to",
          "type": "address"
        },
        {
          "internalType": "uint256",
          "name": "tokenId",
          "type": "uint256"
        },
        {
          "internalType": "bytes",
          "name": "data",
          "type": "bytes"
        }
      ],
      "name": "safeTransferFrom",
      "outputs": [],
      "stateMutability": "nonpayable",
      "type": "function"
    },
    {
      "inputs": [
        {
          "internalType": "address",
          "name": "operator",
          "type": "address"
        },
        {
          "internalType": "bool",
          "name": "approved",
          "type": "bool"
        }
      ],
      "name": "setApprovalForAll",
      "outputs": [],
      "stateMutability": "nonpayable",
      "type": "function"
    },
    {
      "inputs": [
        {
          "internalType": "bytes4",
          "name": "interfaceId",
          "type": "bytes4"
        }
      ],
      "name": "supportsInterface",
      "outputs": [
        {
          "internalType": "bool",
          "name": "",
          "type": "bool"
        }
      ],
      "stateMutability": "view",
      "type": "function",
      "constant": true
    },
    {
      "inputs": [],
      "name": "symbol",
      "outputs": [
        {
          "internalType": "string",
          "name": "",
          "type": "string"
        }
      ],
      "stateMutability": "view",
      "type": "function",
      "constant": true
    },
    {
      "inputs": [
        {
          "internalType": "uint256",
          "name": "tokenId",
          "type": "uint256"
        }
      ],
      "name": "tokenURI",
      "outputs": [
        {
          "internalType": "string",
          "name": "",
          "type": "string"
        }
      ],
      "stateMutability": "view",
      "type": "function",
      "constant": true
    },
    {
      "inputs": [
        {
          "internalType": "address",
          "name": "from",
          "type": "address"
        },
        {
          "internalType": "address",
          "name": "to",
          "type": "address"
        },
        {
          "internalType": "uint256",
          "name": "tokenId",
          "type": "uint256"
        }
      ],
      "name": "transferFrom",
      "outputs": [],
      "stateMutability": "nonpayable",
      "type": "function"
    },
    {
      "inputs": [
        {
          "internalType": "address",
          "name": "newOwner",
          "type": "address"
        }
      ],
      "name": "transferOwnership",
      "outputs": [],
      "stateMutability": "nonpayable",
      "type": "function"
    },
    {
      "inputs": [
        {
          "internalType": "string",
          "name": "_baseTokenURI",
          "type": "string"
        }
      ],
      "name": "setBaseURI",
      "outputs": [],
      "stateMutability": "nonpayable",
      "type": "function"
    },
    {
      "inputs": [
        {
          "internalType": "uint256",
          "name": "_count",
          "type": "uint256"
        },
        {
          "internalType": "string",
          "name": "tokenURI",
          "type": "string"
        }
      ],
      "name": "mintNFTs",
      "outputs": [],
      "stateMutability": "payable",
      "type": "function",
      "payable": true
    }
  ],
  "bytecode": "0x60806040523480156200001157600080fd5b506040516200397f3803806200397f8339818101604052810190620000379190620004a9565b81818160009080519060200190620000519291906200025c565b5080600190805190602001906200006a9291906200025c565b5050506200008d62000081620000a760201b60201c565b620000af60201b60201c565b6200009e836200017560201b60201c565b50505062000649565b600033905090565b6000600760009054906101000a900473ffffffffffffffffffffffffffffffffffffffff16905081600760006101000a81548173ffffffffffffffffffffffffffffffffffffffff021916908373ffffffffffffffffffffffffffffffffffffffff1602179055508173ffffffffffffffffffffffffffffffffffffffff168173ffffffffffffffffffffffffffffffffffffffff167f8be0079c531659141344cd1fd0a4f28419497f9722a3daafe3b4186f6b6457e060405160405180910390a35050565b62000185620001a160201b60201c565b80600990805190602001906200019d9291906200025c565b5050565b620001b1620000a760201b60201c565b73ffffffffffffffffffffffffffffffffffffffff16620001d76200023260201b60201c565b73ffffffffffffffffffffffffffffffffffffffff161462000230576040517f08c379a00000000000000000000000000000000000000000000000000000000081526004016200022790620005c3565b60405180910390fd5b565b6000600760009054906101000a900473ffffffffffffffffffffffffffffffffffffffff16905090565b8280546200026a9062000614565b90600052602060002090601f0160209004810192826200028e5760008555620002da565b82601f10620002a957805160ff1916838001178555620002da565b82800160010185558215620002da579182015b82811115620002d9578251825591602001919060010190620002bc565b5b509050620002e99190620002ed565b5090565b5b8082111562000308576000816000905550600101620002ee565b5090565b6000604051905090565b600080fd5b600080fd5b600080fd5b600080fd5b6000601f19601f8301169050919050565b7f4e487b7100000000000000000000000000000000000000000000000000000000600052604160045260246000fd5b62000375826200032a565b810181811067ffffffffffffffff821117156200039757620003966200033b565b5b80604052505050565b6000620003ac6200030c565b9050620003ba82826200036a565b919050565b600067ffffffffffffffff821115620003dd57620003dc6200033b565b5b620003e8826200032a565b9050602081019050919050565b60005b8381101562000415578082015181840152602081019050620003f8565b8381111562000425576000848401525b50505050565b6000620004426200043c84620003bf565b620003a0565b90508281526020810184848401111562000461576200046062000325565b5b6200046e848285620003f5565b509392505050565b600082601f8301126200048e576200048d62000320565b5b8151620004a08482602086016200042b565b91505092915050565b600080600060608486031215620004c557620004c462000316565b5b600084015167ffffffffffffffff811115620004e657620004e56200031b565b5b620004f48682870162000476565b935050602084015167ffffffffffffffff8111156200051857620005176200031b565b5b620005268682870162000476565b925050604084015167ffffffffffffffff8111156200054a57620005496200031b565b5b620005588682870162000476565b9150509250925092565b600082825260208201905092915050565b7f4f776e61626c653a2063616c6c6572206973206e6f7420746865206f776e6572600082015250565b6000620005ab60208362000562565b9150620005b88262000573565b602082019050919050565b60006020820190508181036000830152620005de816200059c565b9050919050565b7f4e487b7100000000000000000000000000000000000000000000000000000000600052602260045260246000fd5b600060028204905060018216806200062d57607f821691505b602082108103620006435762000642620005e5565b5b50919050565b61332680620006596000396000f3fe6080604052600436106101355760003560e01c8063715018a6116100ab578063a22cb4651161006f578063a22cb46514610407578063b88d4fde14610430578063c87b56dd14610459578063d547cfb714610496578063e985e9c5146104c1578063f2fde38b146104fe57610135565b8063715018a6146103535780638281754d1461036a5780638d859f3e146103865780638da5cb5b146103b157806395d89b41146103dc57610135565b806323b872dd116100fd57806323b872dd1461023357806332cb6b0c1461025c57806342842e0e1461028757806355f804b3146102b05780636352211e146102d957806370a082311461031657610135565b806301ffc9a71461013a57806306fdde0314610177578063081812fc146101a2578063095ea7b3146101df57806309d42b3014610208575b600080fd5b34801561014657600080fd5b50610161600480360381019061015c9190611fc7565b610527565b60405161016e919061200f565b60405180910390f35b34801561018357600080fd5b5061018c610609565b60405161019991906120c3565b60405180910390f35b3480156101ae57600080fd5b506101c960048036038101906101c4919061211b565b61069b565b6040516101d69190612189565b60405180910390f35b3480156101eb57600080fd5b50610206600480360381019061020191906121d0565b6106e1565b005b34801561021457600080fd5b5061021d6107f8565b60405161022a919061221f565b60405180910390f35b34801561023f57600080fd5b5061025a6004803603810190610255919061223a565b6107fd565b005b34801561026857600080fd5b5061027161085d565b60405161027e919061221f565b60405180910390f35b34801561029357600080fd5b506102ae60048036038101906102a9919061223a565b610863565b005b3480156102bc57600080fd5b506102d760048036038101906102d291906123c2565b610883565b005b3480156102e557600080fd5b5061030060048036038101906102fb919061211b565b6108a5565b60405161030d9190612189565b60405180910390f35b34801561032257600080fd5b5061033d6004803603810190610338919061240b565b610956565b60405161034a919061221f565b60405180910390f35b34801561035f57600080fd5b50610368610a0d565b005b610384600480360381019061037f9190612438565b610a21565b005b34801561039257600080fd5b5061039b610b5e565b6040516103a8919061221f565b60405180910390f35b3480156103bd57600080fd5b506103c6610b68565b6040516103d39190612189565b60405180910390f35b3480156103e857600080fd5b506103f1610b92565b6040516103fe91906120c3565b60405180910390f35b34801561041357600080fd5b5061042e600480360381019061042991906124c0565b610c24565b005b34801561043c57600080fd5b50610457600480360381019061045291906125a1565b610c3a565b005b34801561046557600080fd5b50610480600480360381019061047b919061211b565b610c9c565b60405161048d91906120c3565b60405180910390f35b3480156104a257600080fd5b506104ab610dae565b6040516104b891906120c3565b60405180910390f35b3480156104cd57600080fd5b506104e860048036038101906104e39190612624565b610e3c565b6040516104f5919061200f565b60405180910390f35b34801561050a57600080fd5b506105256004803603810190610520919061240b565b610ed0565b005b60007f80ac58cd000000000000000000000000000000000000000000000000000000007bffffffffffffffffffffffffffffffffffffffffffffffffffffffff1916827bffffffffffffffffffffffffffffffffffffffffffffffffffffffff191614806105f257507f5b5e139f000000000000000000000000000000000000000000000000000000007bffffffffffffffffffffffffffffffffffffffffffffffffffffffff1916827bffffffffffffffffffffffffffffffffffffffffffffffffffffffff1916145b80610602575061060182610f53565b5b9050919050565b60606000805461061890612693565b80601f016020809104026020016040519081016040528092919081815260200182805461064490612693565b80156106915780601f1061066657610100808354040283529160200191610691565b820191906000526020600020905b81548152906001019060200180831161067457829003601f168201915b5050505050905090565b60006106a682610fbd565b6004600083815260200190815260200160002060009054906101000a900473ffffffffffffffffffffffffffffffffffffffff169050919050565b60006106ec826108a5565b90508073ffffffffffffffffffffffffffffffffffffffff168373ffffffffffffffffffffffffffffffffffffffff160361075c576040517f08c379a000000000000000000000000000000000000000000000000000000000815260040161075390612736565b60405180910390fd5b8073ffffffffffffffffffffffffffffffffffffffff1661077b611008565b73ffffffffffffffffffffffffffffffffffffffff1614806107aa57506107a9816107a4611008565b610e3c565b5b6107e9576040517f08c379a00000000000000000000000000000000000000000000000000000000081526004016107e0906127c8565b60405180910390fd5b6107f38383611010565b505050565b600581565b61080e610808611008565b826110c9565b61084d576040517f08c379a00000000000000000000000000000000000000000000000000000000081526004016108449061285a565b60405180910390fd5b61085883838361115e565b505050565b61138881565b61087e83838360405180602001604052806000815250610c3a565b505050565b61088b6113c4565b80600990805190602001906108a1929190611eb8565b5050565b6000806002600084815260200190815260200160002060009054906101000a900473ffffffffffffffffffffffffffffffffffffffff169050600073ffffffffffffffffffffffffffffffffffffffff168173ffffffffffffffffffffffffffffffffffffffff160361094d576040517f08c379a0000000000000000000000000000000000000000000000000000000008152600401610944906128c6565b60405180910390fd5b80915050919050565b60008073ffffffffffffffffffffffffffffffffffffffff168273ffffffffffffffffffffffffffffffffffffffff16036109c6576040517f08c379a00000000000000000000000000000000000000000000000000000000081526004016109bd90612958565b60405180910390fd5b600360008373ffffffffffffffffffffffffffffffffffffffff1673ffffffffffffffffffffffffffffffffffffffff168152602001908152602001600020549050919050565b610a156113c4565b610a1f6000611442565b565b6000610a2d6008611508565b9050611388610a45848361151690919063ffffffff16565b1115610a86576040517f08c379a0000000000000000000000000000000000000000000000000000000008152600401610a7d906129c4565b60405180910390fd5b600083118015610a97575060058311155b610ad6576040517f08c379a0000000000000000000000000000000000000000000000000000000008152600401610acd90612a56565b60405180910390fd5b610aef836509184e72a00061152c90919063ffffffff16565b341015610b31576040517f08c379a0000000000000000000000000000000000000000000000000000000008152600401610b2890612ae8565b60405180910390fd5b60005b83811015610b5857610b4583611542565b8080610b5090612b37565b915050610b34565b50505050565b6509184e72a00081565b6000600760009054906101000a900473ffffffffffffffffffffffffffffffffffffffff16905090565b606060018054610ba190612693565b80601f0160208091040260200160405190810160405280929190818152602001828054610bcd90612693565b8015610c1a5780601f10610bef57610100808354040283529160200191610c1a565b820191906000526020600020905b815481529060010190602001808311610bfd57829003601f168201915b5050505050905090565b610c36610c2f611008565b838361159a565b5050565b610c4b610c45611008565b836110c9565b610c8a576040517f08c379a0000000000000000000000000000000000000000000000000000000008152600401610c819061285a565b60405180910390fd5b610c9684848484611706565b50505050565b6060610ca782610fbd565b6000600660008481526020019081526020016000208054610cc790612693565b80601f0160208091040260200160405190810160405280929190818152602001828054610cf390612693565b8015610d405780601f10610d1557610100808354040283529160200191610d40565b820191906000526020600020905b815481529060010190602001808311610d2357829003601f168201915b505050505090506000610d51611762565b90506000815103610d66578192505050610da9565b600082511115610d9b578082604051602001610d83929190612bbb565b60405160208183030381529060405292505050610da9565b610da4846117f4565b925050505b919050565b60098054610dbb90612693565b80601f0160208091040260200160405190810160405280929190818152602001828054610de790612693565b8015610e345780601f10610e0957610100808354040283529160200191610e34565b820191906000526020600020905b815481529060010190602001808311610e1757829003601f168201915b505050505081565b6000600560008473ffffffffffffffffffffffffffffffffffffffff1673ffffffffffffffffffffffffffffffffffffffff16815260200190815260200160002060008373ffffffffffffffffffffffffffffffffffffffff1673ffffffffffffffffffffffffffffffffffffffff16815260200190815260200160002060009054906101000a900460ff16905092915050565b610ed86113c4565b600073ffffffffffffffffffffffffffffffffffffffff168173ffffffffffffffffffffffffffffffffffffffff1603610f47576040517f08c379a0000000000000000000000000000000000000000000000000000000008152600401610f3e90612c51565b60405180910390fd5b610f5081611442565b50565b60007f01ffc9a7000000000000000000000000000000000000000000000000000000007bffffffffffffffffffffffffffffffffffffffffffffffffffffffff1916827bffffffffffffffffffffffffffffffffffffffffffffffffffffffff1916149050919050565b610fc68161185c565b611005576040517f08c379a0000000000000000000000000000000000000000000000000000000008152600401610ffc906128c6565b60405180910390fd5b50565b600033905090565b816004600083815260200190815260200160002060006101000a81548173ffffffffffffffffffffffffffffffffffffffff021916908373ffffffffffffffffffffffffffffffffffffffff160217905550808273ffffffffffffffffffffffffffffffffffffffff16611083836108a5565b73ffffffffffffffffffffffffffffffffffffffff167f8c5be1e5ebec7d5bd14f71427d1e84f3dd0314c0f7b2291e5b200ac8c7c3b92560405160405180910390a45050565b6000806110d5836108a5565b90508073ffffffffffffffffffffffffffffffffffffffff168473ffffffffffffffffffffffffffffffffffffffff16148061111757506111168185610e3c565b5b8061115557508373ffffffffffffffffffffffffffffffffffffffff1661113d8461069b565b73ffffffffffffffffffffffffffffffffffffffff16145b91505092915050565b8273ffffffffffffffffffffffffffffffffffffffff1661117e826108a5565b73ffffffffffffffffffffffffffffffffffffffff16146111d4576040517f08c379a00000000000000000000000000000000000000000000000000000000081526004016111cb90612ce3565b60405180910390fd5b600073ffffffffffffffffffffffffffffffffffffffff168273ffffffffffffffffffffffffffffffffffffffff1603611243576040517f08c379a000000000000000000000000000000000000000000000000000000000815260040161123a90612d75565b60405180910390fd5b61124e8383836118c8565b611259600082611010565b6001600360008573ffffffffffffffffffffffffffffffffffffffff1673ffffffffffffffffffffffffffffffffffffffff16815260200190815260200160002060008282546112a99190612d95565b925050819055506001600360008473ffffffffffffffffffffffffffffffffffffffff1673ffffffffffffffffffffffffffffffffffffffff16815260200190815260200160002060008282546113009190612dc9565b92505081905550816002600083815260200190815260200160002060006101000a81548173ffffffffffffffffffffffffffffffffffffffff021916908373ffffffffffffffffffffffffffffffffffffffff160217905550808273ffffffffffffffffffffffffffffffffffffffff168473ffffffffffffffffffffffffffffffffffffffff167fddf252ad1be2c89b69c2b068fc378daa952ba7f163c4a11628f55a4df523b3ef60405160405180910390a46113bf8383836118cd565b505050565b6113cc611008565b73ffffffffffffffffffffffffffffffffffffffff166113ea610b68565b73ffffffffffffffffffffffffffffffffffffffff1614611440576040517f08c379a000000000000000000000000000000000000000000000000000000000815260040161143790612e6b565b60405180910390fd5b565b6000600760009054906101000a900473ffffffffffffffffffffffffffffffffffffffff16905081600760006101000a81548173ffffffffffffffffffffffffffffffffffffffff021916908373ffffffffffffffffffffffffffffffffffffffff1602179055508173ffffffffffffffffffffffffffffffffffffffff168173ffffffffffffffffffffffffffffffffffffffff167f8be0079c531659141344cd1fd0a4f28419497f9722a3daafe3b4186f6b6457e060405160405180910390a35050565b600081600001549050919050565b600081836115249190612dc9565b905092915050565b6000818361153a9190612e8b565b905092915050565b600061154e6008611508565b905061155a33826118d2565b61158c81611566611762565b84604051602001611578929190612bbb565b6040516020818303038152906040526118f0565b6115966008611964565b5050565b8173ffffffffffffffffffffffffffffffffffffffff168373ffffffffffffffffffffffffffffffffffffffff1603611608576040517f08c379a00000000000000000000000000000000000000000000000000000000081526004016115ff90612f31565b60405180910390fd5b80600560008573ffffffffffffffffffffffffffffffffffffffff1673ffffffffffffffffffffffffffffffffffffffff16815260200190815260200160002060008473ffffffffffffffffffffffffffffffffffffffff1673ffffffffffffffffffffffffffffffffffffffff16815260200190815260200160002060006101000a81548160ff0219169083151502179055508173ffffffffffffffffffffffffffffffffffffffff168373ffffffffffffffffffffffffffffffffffffffff167f17307eab39ab6107e8899845ad3d59bd9653f200f220920489ca2b5937696c31836040516116f9919061200f565b60405180910390a3505050565b61171184848461115e565b61171d8484848461197a565b61175c576040517f08c379a000000000000000000000000000000000000000000000000000000000815260040161175390612fc3565b60405180910390fd5b50505050565b60606009805461177190612693565b80601f016020809104026020016040519081016040528092919081815260200182805461179d90612693565b80156117ea5780601f106117bf576101008083540402835291602001916117ea565b820191906000526020600020905b8154815290600101906020018083116117cd57829003601f168201915b5050505050905090565b60606117ff82610fbd565b6000611809611762565b905060008151116118295760405180602001604052806000815250611854565b8061183384611b01565b604051602001611844929190612bbb565b6040516020818303038152906040525b915050919050565b60008073ffffffffffffffffffffffffffffffffffffffff166002600084815260200190815260200160002060009054906101000a900473ffffffffffffffffffffffffffffffffffffffff1673ffffffffffffffffffffffffffffffffffffffff1614159050919050565b505050565b505050565b6118ec828260405180602001604052806000815250611c61565b5050565b6118f98261185c565b611938576040517f08c379a000000000000000000000000000000000000000000000000000000000815260040161192f90613055565b60405180910390fd5b8060066000848152602001908152602001600020908051906020019061195f929190611eb8565b505050565b6001816000016000828254019250508190555050565b600061199b8473ffffffffffffffffffffffffffffffffffffffff16611cbc565b15611af4578373ffffffffffffffffffffffffffffffffffffffff1663150b7a026119c4611008565b8786866040518563ffffffff1660e01b81526004016119e694939291906130ca565b6020604051808303816000875af1925050508015611a2257506040513d601f19601f82011682018060405250810190611a1f919061312b565b60015b611aa4573d8060008114611a52576040519150601f19603f3d011682016040523d82523d6000602084013e611a57565b606091505b506000815103611a9c576040517f08c379a0000000000000000000000000000000000000000000000000000000008152600401611a9390612fc3565b60405180910390fd5b805181602001fd5b63150b7a0260e01b7bffffffffffffffffffffffffffffffffffffffffffffffffffffffff1916817bffffffffffffffffffffffffffffffffffffffffffffffffffffffff191614915050611af9565b600190505b949350505050565b606060008203611b48576040518060400160405280600181526020017f30000000000000000000000000000000000000000000000000000000000000008152509050611c5c565b600082905060005b60008214611b7a578080611b6390612b37565b915050600a82611b739190613187565b9150611b50565b60008167ffffffffffffffff811115611b9657611b95612297565b5b6040519080825280601f01601f191660200182016040528015611bc85781602001600182028036833780820191505090505b5090505b60008514611c5557600182611be19190612d95565b9150600a85611bf091906131b8565b6030611bfc9190612dc9565b60f81b818381518110611c1257611c116131e9565b5b60200101907effffffffffffffffffffffffffffffffffffffffffffffffffffffffffffff1916908160001a905350600a85611c4e9190613187565b9450611bcc565b8093505050505b919050565b611c6b8383611cdf565b611c78600084848461197a565b611cb7576040517f08c379a0000000000000000000000000000000000000000000000000000000008152600401611cae90612fc3565b60405180910390fd5b505050565b6000808273ffffffffffffffffffffffffffffffffffffffff163b119050919050565b600073ffffffffffffffffffffffffffffffffffffffff168273ffffffffffffffffffffffffffffffffffffffff1603611d4e576040517f08c379a0000000000000000000000000000000000000000000000000000000008152600401611d4590613264565b60405180910390fd5b611d578161185c565b15611d97576040517f08c379a0000000000000000000000000000000000000000000000000000000008152600401611d8e906132d0565b60405180910390fd5b611da3600083836118c8565b6001600360008473ffffffffffffffffffffffffffffffffffffffff1673ffffffffffffffffffffffffffffffffffffffff1681526020019081526020016000206000828254611df39190612dc9565b92505081905550816002600083815260200190815260200160002060006101000a81548173ffffffffffffffffffffffffffffffffffffffff021916908373ffffffffffffffffffffffffffffffffffffffff160217905550808273ffffffffffffffffffffffffffffffffffffffff16600073ffffffffffffffffffffffffffffffffffffffff167fddf252ad1be2c89b69c2b068fc378daa952ba7f163c4a11628f55a4df523b3ef60405160405180910390a4611eb4600083836118cd565b5050565b828054611ec490612693565b90600052602060002090601f016020900481019282611ee65760008555611f2d565b82601f10611eff57805160ff1916838001178555611f2d565b82800160010185558215611f2d579182015b82811115611f2c578251825591602001919060010190611f11565b5b509050611f3a9190611f3e565b5090565b5b80821115611f57576000816000905550600101611f3f565b5090565b6000604051905090565b600080fd5b600080fd5b60007fffffffff0000000000000000000000000000000000000000000000000000000082169050919050565b611fa481611f6f565b8114611faf57600080fd5b50565b600081359050611fc181611f9b565b92915050565b600060208284031215611fdd57611fdc611f65565b5b6000611feb84828501611fb2565b91505092915050565b60008115159050919050565b61200981611ff4565b82525050565b60006020820190506120246000830184612000565b92915050565b600081519050919050565b600082825260208201905092915050565b60005b83811015612064578082015181840152602081019050612049565b83811115612073576000848401525b50505050565b6000601f19601f8301169050919050565b60006120958261202a565b61209f8185612035565b93506120af818560208601612046565b6120b881612079565b840191505092915050565b600060208201905081810360008301526120dd818461208a565b905092915050565b6000819050919050565b6120f8816120e5565b811461210357600080fd5b50565b600081359050612115816120ef565b92915050565b60006020828403121561213157612130611f65565b5b600061213f84828501612106565b91505092915050565b600073ffffffffffffffffffffffffffffffffffffffff82169050919050565b600061217382612148565b9050919050565b61218381612168565b82525050565b600060208201905061219e600083018461217a565b92915050565b6121ad81612168565b81146121b857600080fd5b50565b6000813590506121ca816121a4565b92915050565b600080604083850312156121e7576121e6611f65565b5b60006121f5858286016121bb565b925050602061220685828601612106565b9150509250929050565b612219816120e5565b82525050565b60006020820190506122346000830184612210565b92915050565b60008060006060848603121561225357612252611f65565b5b6000612261868287016121bb565b9350506020612272868287016121bb565b925050604061228386828701612106565b9150509250925092565b600080fd5b600080fd5b7f4e487b7100000000000000000000000000000000000000000000000000000000600052604160045260246000fd5b6122cf82612079565b810181811067ffffffffffffffff821117156122ee576122ed612297565b5b80604052505050565b6000612301611f5b565b905061230d82826122c6565b919050565b600067ffffffffffffffff82111561232d5761232c612297565b5b61233682612079565b9050602081019050919050565b82818337600083830152505050565b600061236561236084612312565b6122f7565b90508281526020810184848401111561238157612380612292565b5b61238c848285612343565b509392505050565b600082601f8301126123a9576123a861228d565b5b81356123b9848260208601612352565b91505092915050565b6000602082840312156123d8576123d7611f65565b5b600082013567ffffffffffffffff8111156123f6576123f5611f6a565b5b61240284828501612394565b91505092915050565b60006020828403121561242157612420611f65565b5b600061242f848285016121bb565b91505092915050565b6000806040838503121561244f5761244e611f65565b5b600061245d85828601612106565b925050602083013567ffffffffffffffff81111561247e5761247d611f6a565b5b61248a85828601612394565b9150509250929050565b61249d81611ff4565b81146124a857600080fd5b50565b6000813590506124ba81612494565b92915050565b600080604083850312156124d7576124d6611f65565b5b60006124e5858286016121bb565b92505060206124f6858286016124ab565b9150509250929050565b600067ffffffffffffffff82111561251b5761251a612297565b5b61252482612079565b9050602081019050919050565b600061254461253f84612500565b6122f7565b9050828152602081018484840111156125605761255f612292565b5b61256b848285612343565b509392505050565b600082601f8301126125885761258761228d565b5b8135612598848260208601612531565b91505092915050565b600080600080608085870312156125bb576125ba611f65565b5b60006125c9878288016121bb565b94505060206125da878288016121bb565b93505060406125eb87828801612106565b925050606085013567ffffffffffffffff81111561260c5761260b611f6a565b5b61261887828801612573565b91505092959194509250565b6000806040838503121561263b5761263a611f65565b5b6000612649858286016121bb565b925050602061265a858286016121bb565b9150509250929050565b7f4e487b7100000000000000000000000000000000000000000000000000000000600052602260045260246000fd5b600060028204905060018216806126ab57607f821691505b6020821081036126be576126bd612664565b5b50919050565b7f4552433732313a20617070726f76616c20746f2063757272656e74206f776e6560008201527f7200000000000000000000000000000000000000000000000000000000000000602082015250565b6000612720602183612035565b915061272b826126c4565b604082019050919050565b6000602082019050818103600083015261274f81612713565b9050919050565b7f4552433732313a20617070726f76652063616c6c6572206973206e6f7420746f60008201527f6b656e206f776e6572206e6f7220617070726f76656420666f7220616c6c0000602082015250565b60006127b2603e83612035565b91506127bd82612756565b604082019050919050565b600060208201905081810360008301526127e1816127a5565b9050919050565b7f4552433732313a2063616c6c6572206973206e6f7420746f6b656e206f776e6560008201527f72206e6f7220617070726f766564000000000000000000000000000000000000602082015250565b6000612844602e83612035565b915061284f826127e8565b604082019050919050565b6000602082019050818103600083015261287381612837565b9050919050565b7f4552433732313a20696e76616c696420746f6b656e2049440000000000000000600082015250565b60006128b0601883612035565b91506128bb8261287a565b602082019050919050565b600060208201905081810360008301526128df816128a3565b9050919050565b7f4552433732313a2061646472657373207a65726f206973206e6f74206120766160008201527f6c6964206f776e65720000000000000000000000000000000000000000000000602082015250565b6000612942602983612035565b915061294d826128e6565b604082019050919050565b6000602082019050818103600083015261297181612935565b9050919050565b7f5468697320636f6c6c656374696f6e20697320736f6c64206f75742100000000600082015250565b60006129ae601c83612035565b91506129b982612978565b602082019050919050565b600060208201905081810360008301526129dd816129a1565b9050919050565b7f596f75206861766520726563656976656420746865206d6178696d756d20616d60008201527f6f756e74206f66204e46547320616c6c6f7765642e0000000000000000000000602082015250565b6000612a40603583612035565b9150612a4b826129e4565b604082019050919050565b60006020820190508181036000830152612a6f81612a33565b9050919050565b7f4e6f7420656e6f75676820657468657220746f207075726368617365204e465460008201527f732e000000000000000000000000000000000000000000000000000000000000602082015250565b6000612ad2602283612035565b9150612add82612a76565b604082019050919050565b60006020820190508181036000830152612b0181612ac5565b9050919050565b7f4e487b7100000000000000000000000000000000000000000000000000000000600052601160045260246000fd5b6000612b42826120e5565b91507fffffffffffffffffffffffffffffffffffffffffffffffffffffffffffffffff8203612b7457612b73612b08565b5b600182019050919050565b600081905092915050565b6000612b958261202a565b612b9f8185612b7f565b9350612baf818560208601612046565b80840191505092915050565b6000612bc78285612b8a565b9150612bd38284612b8a565b91508190509392505050565b7f4f776e61626c653a206e6577206f776e657220697320746865207a65726f206160008201527f6464726573730000000000000000000000000000000000000000000000000000602082015250565b6000612c3b602683612035565b9150612c4682612bdf565b604082019050919050565b60006020820190508181036000830152612c6a81612c2e565b9050919050565b7f4552433732313a207472616e736665722066726f6d20696e636f72726563742060008201527f6f776e6572000000000000000000000000000000000000000000000000000000602082015250565b6000612ccd602583612035565b9150612cd882612c71565b604082019050919050565b60006020820190508181036000830152612cfc81612cc0565b9050919050565b7f4552433732313a207472616e7366657220746f20746865207a65726f2061646460008201527f7265737300000000000000000000000000000000000000000000000000000000602082015250565b6000612d5f602483612035565b9150612d6a82612d03565b604082019050919050565b60006020820190508181036000830152612d8e81612d52565b9050919050565b6000612da0826120e5565b9150612dab836120e5565b925082821015612dbe57612dbd612b08565b5b828203905092915050565b6000612dd4826120e5565b9150612ddf836120e5565b9250827fffffffffffffffffffffffffffffffffffffffffffffffffffffffffffffffff03821115612e1457612e13612b08565b5b828201905092915050565b7f4f776e61626c653a2063616c6c6572206973206e6f7420746865206f776e6572600082015250565b6000612e55602083612035565b9150612e6082612e1f565b602082019050919050565b60006020820190508181036000830152612e8481612e48565b9050919050565b6000612e96826120e5565b9150612ea1836120e5565b9250817fffffffffffffffffffffffffffffffffffffffffffffffffffffffffffffffff0483118215151615612eda57612ed9612b08565b5b828202905092915050565b7f4552433732313a20617070726f766520746f2063616c6c657200000000000000600082015250565b6000612f1b601983612035565b9150612f2682612ee5565b602082019050919050565b60006020820190508181036000830152612f4a81612f0e565b9050919050565b7f4552433732313a207472616e7366657220746f206e6f6e20455243373231526560008201527f63656976657220696d706c656d656e7465720000000000000000000000000000602082015250565b6000612fad603283612035565b9150612fb882612f51565b604082019050919050565b60006020820190508181036000830152612fdc81612fa0565b9050919050565b7f45524337323155524953746f726167653a2055524920736574206f66206e6f6e60008201527f6578697374656e7420746f6b656e000000000000000000000000000000000000602082015250565b600061303f602e83612035565b915061304a82612fe3565b604082019050919050565b6000602082019050818103600083015261306e81613032565b9050919050565b600081519050919050565b600082825260208201905092915050565b600061309c82613075565b6130a68185613080565b93506130b6818560208601612046565b6130bf81612079565b840191505092915050565b60006080820190506130df600083018761217a565b6130ec602083018661217a565b6130f96040830185612210565b818103606083015261310b8184613091565b905095945050505050565b60008151905061312581611f9b565b92915050565b60006020828403121561314157613140611f65565b5b600061314f84828501613116565b91505092915050565b7f4e487b7100000000000000000000000000000000000000000000000000000000600052601260045260246000fd5b6000613192826120e5565b915061319d836120e5565b9250826131ad576131ac613158565b5b828204905092915050565b60006131c3826120e5565b91506131ce836120e5565b9250826131de576131dd613158565b5b828206905092915050565b7f4e487b7100000000000000000000000000000000000000000000000000000000600052603260045260246000fd5b7f4552433732313a206d696e7420746f20746865207a65726f2061646472657373600082015250565b600061324e602083612035565b915061325982613218565b602082019050919050565b6000602082019050818103600083015261327d81613241565b9050919050565b7f4552433732313a20746f6b656e20616c7265616479206d696e74656400000000600082015250565b60006132ba601c83612035565b91506132c582613284565b602082019050919050565b600060208201905081810360008301526132e9816132ad565b905091905056fea2646970667358221220812b179e7e033e0ce42db1eb918fe14e0d51cdbf30034d0e1dab23d10164446664736f6c634300080d0033",
  "immutableReferences": {},
  "source": "//SPDX-License-Identifier: MIT\npragma solidity ^0.8.13;\n\nimport \"@openzeppelin/contracts/utils/Counters.sol\";\nimport \"@openzeppelin/contracts/access/Ownable.sol\";\nimport \"@openzeppelin/contracts/utils/math/SafeMath.sol\";\nimport \"@openzeppelin/contracts/token/ERC721/extensions/ERC721URIStorage.sol\";\n\ncontract NFTCollection is ERC721URIStorage, Ownable {\n    using SafeMath for uint256;\n    using Counters for Counters.Counter;\n\n    Counters.Counter private _tokenIds;\n    // The max number of NFTs in the collection\n    uint public constant MAX_SUPPLY = 5000;\n    // The mint price for the collection\n    uint public constant PRICE = 0.00001 ether;\n    // The max number of mints per wallet\n    uint public constant MAX_PER_MINT = 5;\n\n    string public baseTokenURI;\n\n    constructor(string memory baseURI, string memory name, string memory symbol) ERC721(name, symbol) {\n        setBaseURI(baseURI);\n\n\t}\n\n\n    function _baseURI() internal view virtual override returns (string memory) {\n        return baseTokenURI;\n    }\n\n    function setBaseURI(string memory _baseTokenURI) public onlyOwner {\n        baseTokenURI = _baseTokenURI;\n    }\n\n    function mintNFTs(uint _count,string memory tokenURI) public payable {\n        uint totalMinted = _tokenIds.current();\n\n        require(totalMinted.add(_count) <= MAX_SUPPLY, \"This collection is sold out!\");\n        require(_count >0 && _count <= MAX_PER_MINT, \"You have received the maximum amount of NFTs allowed.\");\n        require(msg.value >= PRICE.mul(_count), \"Not enough ether to purchase NFTs.\");\n\n        for (uint i = 0; i < _count; i++) {\n            _mintSingleNFT(tokenURI);\n        }\n    }\n\n    function _mintSingleNFT(string memory tokenURI) private {\n        uint newTokenID = _tokenIds.current();\n        _safeMint(msg.sender, newTokenID);\n\t\t_setTokenURI(newTokenID, string.concat(_baseURI(), tokenURI));\n        _tokenIds.increment();\n    }\n\n//    // Returns the ids of the NFTs owned by the wallet address\n//    function tokensOfOwner(address _owner) external view returns (uint[] memory) {\n//        uint tokenCount = balanceOf(_owner);\n//        uint[] memory tokensId = new uint256[](tokenCount);\n//\n//        for (uint i = 0; i < tokenCount; i++) {\n//            tokensId[i] = tokenOfOwnerByIndex(_owner, i);\n//        }\n//        return tokensId;\n//    }\n//\n//    // Withdraw the ether in the contract\n//    function withdraw() public payable onlyOwner {\n//        uint balance = address(this).balance;\n//        require(balance > 0, \"No ether left to withdraw\");\n//\n//        (bool success, ) = (msg.sender).call{value: balance}(\"\");\n//        require(success, \"Transfer failed.\");\n//    }\n//\n//    // Reserve NFTs only for owner to mint for free\n//    function reserveNFTs(uint _count) public onlyOwner {\n//        uint totalMinted = _tokenIds.current();\n//\n//        require(totalMinted.add(_count) < MAX_SUPPLY, \"Not enough NFTs left to reserve\");\n//\n//        for (uint i = 0; i < _count; i++) {\n//            _mintSingleNFT();\n//        }\n//    }\n}\n\n",
  "sourcePath": "/Users/developerstudio/workspace/nift/contracts/NFTCollection.sol",
  "compiler": {
    "name": "solc",
    "version": "0.8.13+commit.abaa5c0e.Emscripten.clang"
  },
  "schemaVersion": "3.4.10",
  "updatedAt": "2022-10-15T14:30:33.790Z",
  "networkType": "ethereum",
  "devdoc": {
    "kind": "dev",
    "methods": {
      "approve(address,uint256)": {
        "details": "See {IERC721-approve}."
      },
      "balanceOf(address)": {
        "details": "See {IERC721-balanceOf}."
      },
      "getApproved(uint256)": {
        "details": "See {IERC721-getApproved}."
      },
      "isApprovedForAll(address,address)": {
        "details": "See {IERC721-isApprovedForAll}."
      },
      "name()": {
        "details": "See {IERC721Metadata-name}."
      },
      "owner()": {
        "details": "Returns the address of the current owner."
      },
      "ownerOf(uint256)": {
        "details": "See {IERC721-ownerOf}."
      },
      "renounceOwnership()": {
        "details": "Leaves the contract without owner. It will not be possible to call `onlyOwner` functions anymore. Can only be called by the current owner. NOTE: Renouncing ownership will leave the contract without an owner, thereby removing any functionality that is only available to the owner."
      },
      "safeTransferFrom(address,address,uint256)": {
        "details": "See {IERC721-safeTransferFrom}."
      },
      "safeTransferFrom(address,address,uint256,bytes)": {
        "details": "See {IERC721-safeTransferFrom}."
      },
      "setApprovalForAll(address,bool)": {
        "details": "See {IERC721-setApprovalForAll}."
      },
      "supportsInterface(bytes4)": {
        "details": "See {IERC165-supportsInterface}."
      },
      "symbol()": {
        "details": "See {IERC721Metadata-symbol}."
      },
      "tokenURI(uint256)": {
        "details": "See {IERC721Metadata-tokenURI}."
      },
      "transferFrom(address,address,uint256)": {
        "details": "See {IERC721-transferFrom}."
      },
      "transferOwnership(address)": {
        "details": "Transfers ownership of the contract to a new account (`newOwner`). Can only be called by the current owner."
      }
    },
    "version": 1
  },
  "userdoc": {
    "kind": "user",
    "methods": {},
    "version": 1
  }
}